{
  "contractName": "pranaHelper",
  "abi": [
    {
      "inputs": [],
      "stateMutability": "nonpayable",
      "type": "constructor"
    },
    {
      "inputs": [
        {
          "internalType": "address",
          "name": "_pranaAddress",
          "type": "address"
        }
      ],
      "name": "setPranaAddress",
      "outputs": [],
      "stateMutability": "nonpayable",
      "type": "function"
    },
    {
      "inputs": [
        {
          "internalType": "uint256",
          "name": "tokenId",
          "type": "uint256"
        }
      ],
      "name": "buyTokenFromPrana",
      "outputs": [],
      "stateMutability": "payable",
      "type": "function"
    }
  ],
  "bytecode": "0x608060405234801561001057600080fd5b50336000806101000a81548173ffffffffffffffffffffffffffffffffffffffff021916908373ffffffffffffffffffffffffffffffffffffffff1602179055506102b5806100606000396000f3fe6080604052600436106100295760003560e01c8063a9fbf5c41461002e578063f60d01041461007f575b600080fd5b34801561003a57600080fd5b5061007d6004803603602081101561005157600080fd5b81019080803573ffffffffffffffffffffffffffffffffffffffff1690602001909291905050506100ad565b005b6100ab6004803603602081101561009557600080fd5b8101908080359060200190929190505050610195565b005b60008054906101000a900473ffffffffffffffffffffffffffffffffffffffff1673ffffffffffffffffffffffffffffffffffffffff163373ffffffffffffffffffffffffffffffffffffffff1614610151576040517f08c379a000000000000000000000000000000000000000000000000000000000815260040180806020018281038252603581526020018061024b6035913960400191505060405180910390fd5b80600160006101000a81548173ffffffffffffffffffffffffffffffffffffffff021916908373ffffffffffffffffffffffffffffffffffffffff16021790555050565b6000600160009054906101000a900473ffffffffffffffffffffffffffffffffffffffff1690508073ffffffffffffffffffffffffffffffffffffffff16639134709e3484336040518463ffffffff1660e01b8152600401808381526020018273ffffffffffffffffffffffffffffffffffffffff168152602001925050506000604051808303818588803b15801561022d57600080fd5b505af1158015610241573d6000803e3d6000fd5b5050505050505056fe596f7520617265206e6f742074686520636f6e7472616374206f776e657220746f2063616c6c20746869732066756e6374696f6e21a26469706673582212201796f538a67b3bc72359eb0307fbfc1baff43565a36f0cdfe30a29fe062f1fd464736f6c634300060c0033",
  "immutableReferences": {},
  "source": "// SPDX-License-Identifier: MIT\n\npragma solidity >=0.4.16 <0.9.0;\n\n\ncontract PranaInterface{\n    function buyToken(uint256 tokenid, address _tokenRecipient) public payable{}\n}\n\ncontract pranaHelper {\n\n\n    constructor () public {\n        owner = msg.sender;\n    }\n\n    //address of the contract deployer.\n    address owner;\n\n    //address of the prana contract\n    address pranaAddress;\n\n    //Modifier for onlyOwner functions\n    modifier onlyOwner {\n       require(msg.sender == owner, 'You are not the contract owner to call this function!');\n       _;\n    }\n\n    function setPranaAddress(address _pranaAddress) public onlyOwner{\n        pranaAddress = _pranaAddress;\n    }\n\n    function buyTokenFromPrana(uint256 tokenId) public payable{\n        PranaInterface P = PranaInterface(pranaAddress);\n        P.buyToken{value:msg.value}(tokenId, msg.sender);\n    }\n\n}",
  "sourcePath": "/Users/user/Documents/pranah/contract/contracts/pranaHelper.sol",
  "compiler": {
    "name": "solc",
    "version": "0.6.12+commit.27d51765.Emscripten.clang"
  },
  "schemaVersion": "3.3.2",
  "updatedAt": "2021-03-31T06:07:42.372Z",
  "devdoc": {
    "kind": "dev",
    "methods": {},
    "version": 1
  },
  "userdoc": {
    "kind": "user",
    "methods": {},
    "version": 1
  }
}