{
  "contractName": "prana",
  "abi": [
    {
      "inputs": [],
      "stateMutability": "nonpayable",
      "type": "constructor"
    },
    {
      "anonymous": false,
      "inputs": [
        {
          "indexed": true,
          "internalType": "address",
          "name": "owner",
          "type": "address"
        },
        {
          "indexed": true,
          "internalType": "address",
          "name": "approved",
          "type": "address"
        },
        {
          "indexed": true,
          "internalType": "uint256",
          "name": "tokenId",
          "type": "uint256"
        }
      ],
      "name": "Approval",
      "type": "event"
    },
    {
      "anonymous": false,
      "inputs": [
        {
          "indexed": true,
          "internalType": "address",
          "name": "owner",
          "type": "address"
        },
        {
          "indexed": true,
          "internalType": "address",
          "name": "operator",
          "type": "address"
        },
        {
          "indexed": false,
          "internalType": "bool",
          "name": "approved",
          "type": "bool"
        }
      ],
      "name": "ApprovalForAll",
      "type": "event"
    },
    {
      "anonymous": false,
      "inputs": [
        {
          "indexed": true,
          "internalType": "address",
          "name": "publisher",
          "type": "address"
        },
        {
          "indexed": true,
          "internalType": "uint256",
          "name": "isbn",
          "type": "uint256"
        },
        {
          "indexed": false,
          "internalType": "string",
          "name": "bookCoverAndDetails",
          "type": "string"
        },
        {
          "indexed": true,
          "internalType": "uint256",
          "name": "price",
          "type": "uint256"
        },
        {
          "indexed": false,
          "internalType": "uint256",
          "name": "transactionCut",
          "type": "uint256"
        }
      ],
      "name": "BookPublished",
      "type": "event"
    },
    {
      "anonymous": false,
      "inputs": [
        {
          "indexed": true,
          "internalType": "uint256",
          "name": "rentingPrice",
          "type": "uint256"
        },
        {
          "indexed": true,
          "internalType": "uint256",
          "name": "isbn",
          "type": "uint256"
        },
        {
          "indexed": true,
          "internalType": "uint256",
          "name": "tokenId",
          "type": "uint256"
        }
      ],
      "name": "TokenForRenting",
      "type": "event"
    },
    {
      "anonymous": false,
      "inputs": [
        {
          "indexed": true,
          "internalType": "uint256",
          "name": "resalePrice",
          "type": "uint256"
        },
        {
          "indexed": true,
          "internalType": "uint256",
          "name": "isbn",
          "type": "uint256"
        },
        {
          "indexed": true,
          "internalType": "uint256",
          "name": "tokenId",
          "type": "uint256"
        }
      ],
      "name": "TokenForSale",
      "type": "event"
    },
    {
      "anonymous": false,
      "inputs": [
        {
          "indexed": true,
          "internalType": "uint256",
          "name": "isbn",
          "type": "uint256"
        },
        {
          "indexed": true,
          "internalType": "uint256",
          "name": "tokenId",
          "type": "uint256"
        },
        {
          "indexed": true,
          "internalType": "address",
          "name": "rentee",
          "type": "address"
        }
      ],
      "name": "TokenRented",
      "type": "event"
    },
    {
      "anonymous": false,
      "inputs": [
        {
          "indexed": true,
          "internalType": "address",
          "name": "from",
          "type": "address"
        },
        {
          "indexed": true,
          "internalType": "address",
          "name": "to",
          "type": "address"
        },
        {
          "indexed": true,
          "internalType": "uint256",
          "name": "tokenId",
          "type": "uint256"
        }
      ],
      "name": "Transfer",
      "type": "event"
    },
    {
      "inputs": [
        {
          "internalType": "address",
          "name": "to",
          "type": "address"
        },
        {
          "internalType": "uint256",
          "name": "tokenId",
          "type": "uint256"
        }
      ],
      "name": "approve",
      "outputs": [],
      "stateMutability": "nonpayable",
      "type": "function"
    },
    {
      "inputs": [
        {
          "internalType": "address",
          "name": "owner",
          "type": "address"
        }
      ],
      "name": "balanceOf",
      "outputs": [
        {
          "internalType": "uint256",
          "name": "",
          "type": "uint256"
        }
      ],
      "stateMutability": "view",
      "type": "function"
    },
    {
      "inputs": [],
      "name": "baseURI",
      "outputs": [
        {
          "internalType": "string",
          "name": "",
          "type": "string"
        }
      ],
      "stateMutability": "view",
      "type": "function"
    },
    {
      "inputs": [
        {
          "internalType": "uint256",
          "name": "tokenId",
          "type": "uint256"
        }
      ],
      "name": "getApproved",
      "outputs": [
        {
          "internalType": "address",
          "name": "",
          "type": "address"
        }
      ],
      "stateMutability": "view",
      "type": "function"
    },
    {
      "inputs": [
        {
          "internalType": "address",
          "name": "owner",
          "type": "address"
        },
        {
          "internalType": "address",
          "name": "operator",
          "type": "address"
        }
      ],
      "name": "isApprovedForAll",
      "outputs": [
        {
          "internalType": "bool",
          "name": "",
          "type": "bool"
        }
      ],
      "stateMutability": "view",
      "type": "function"
    },
    {
      "inputs": [],
      "name": "name",
      "outputs": [
        {
          "internalType": "string",
          "name": "",
          "type": "string"
        }
      ],
      "stateMutability": "view",
      "type": "function"
    },
    {
      "inputs": [
        {
          "internalType": "uint256",
          "name": "tokenId",
          "type": "uint256"
        }
      ],
      "name": "ownerOf",
      "outputs": [
        {
          "internalType": "address",
          "name": "",
          "type": "address"
        }
      ],
      "stateMutability": "view",
      "type": "function"
    },
    {
      "inputs": [
        {
          "internalType": "address",
          "name": "from",
          "type": "address"
        },
        {
          "internalType": "address",
          "name": "to",
          "type": "address"
        },
        {
          "internalType": "uint256",
          "name": "tokenId",
          "type": "uint256"
        }
      ],
      "name": "safeTransferFrom",
      "outputs": [],
      "stateMutability": "nonpayable",
      "type": "function"
    },
    {
      "inputs": [
        {
          "internalType": "address",
          "name": "from",
          "type": "address"
        },
        {
          "internalType": "address",
          "name": "to",
          "type": "address"
        },
        {
          "internalType": "uint256",
          "name": "tokenId",
          "type": "uint256"
        },
        {
          "internalType": "bytes",
          "name": "_data",
          "type": "bytes"
        }
      ],
      "name": "safeTransferFrom",
      "outputs": [],
      "stateMutability": "nonpayable",
      "type": "function"
    },
    {
      "inputs": [
        {
          "internalType": "address",
          "name": "operator",
          "type": "address"
        },
        {
          "internalType": "bool",
          "name": "approved",
          "type": "bool"
        }
      ],
      "name": "setApprovalForAll",
      "outputs": [],
      "stateMutability": "nonpayable",
      "type": "function"
    },
    {
      "inputs": [
        {
          "internalType": "bytes4",
          "name": "interfaceId",
          "type": "bytes4"
        }
      ],
      "name": "supportsInterface",
      "outputs": [
        {
          "internalType": "bool",
          "name": "",
          "type": "bool"
        }
      ],
      "stateMutability": "view",
      "type": "function"
    },
    {
      "inputs": [],
      "name": "symbol",
      "outputs": [
        {
          "internalType": "string",
          "name": "",
          "type": "string"
        }
      ],
      "stateMutability": "view",
      "type": "function"
    },
    {
      "inputs": [
        {
          "internalType": "uint256",
          "name": "index",
          "type": "uint256"
        }
      ],
      "name": "tokenByIndex",
      "outputs": [
        {
          "internalType": "uint256",
          "name": "",
          "type": "uint256"
        }
      ],
      "stateMutability": "view",
      "type": "function"
    },
    {
      "inputs": [
        {
          "internalType": "address",
          "name": "owner",
          "type": "address"
        },
        {
          "internalType": "uint256",
          "name": "index",
          "type": "uint256"
        }
      ],
      "name": "tokenOfOwnerByIndex",
      "outputs": [
        {
          "internalType": "uint256",
          "name": "",
          "type": "uint256"
        }
      ],
      "stateMutability": "view",
      "type": "function"
    },
    {
      "inputs": [
        {
          "internalType": "uint256",
          "name": "tokenId",
          "type": "uint256"
        }
      ],
      "name": "tokenURI",
      "outputs": [
        {
          "internalType": "string",
          "name": "",
          "type": "string"
        }
      ],
      "stateMutability": "view",
      "type": "function"
    },
    {
      "inputs": [],
      "name": "totalSupply",
      "outputs": [
        {
          "internalType": "uint256",
          "name": "",
          "type": "uint256"
        }
      ],
      "stateMutability": "view",
      "type": "function"
    },
    {
      "inputs": [
        {
          "internalType": "address",
          "name": "from",
          "type": "address"
        },
        {
          "internalType": "address",
          "name": "to",
          "type": "address"
        },
        {
          "internalType": "uint256",
          "name": "tokenId",
          "type": "uint256"
        }
      ],
      "name": "transferFrom",
      "outputs": [],
      "stateMutability": "nonpayable",
      "type": "function"
    },
    {
      "inputs": [
        {
          "internalType": "address",
          "name": "_pranaHelperAddress",
          "type": "address"
        }
      ],
      "name": "setPranaHelperAddress",
      "outputs": [],
      "stateMutability": "nonpayable",
      "type": "function"
    },
    {
      "inputs": [
        {
          "internalType": "string",
          "name": "_encryptedBookDataHash",
          "type": "string"
        },
        {
          "internalType": "uint256",
          "name": "_isbn",
          "type": "uint256"
        },
        {
          "internalType": "uint256",
          "name": "_price",
          "type": "uint256"
        },
        {
          "internalType": "string",
          "name": "_unencryptedBookDetailsCID",
          "type": "string"
        },
        {
          "internalType": "uint256",
          "name": "_transactionCut",
          "type": "uint256"
        }
      ],
      "name": "publishBook",
      "outputs": [],
      "stateMutability": "nonpayable",
      "type": "function"
    },
    {
      "inputs": [
        {
          "internalType": "uint256",
          "name": "_isbn",
          "type": "uint256"
        }
      ],
      "name": "directPurchase",
      "outputs": [
        {
          "internalType": "bool",
          "name": "",
          "type": "bool"
        }
      ],
      "stateMutability": "payable",
      "type": "function"
    },
    {
      "inputs": [
        {
          "internalType": "uint256",
          "name": "salePrice",
          "type": "uint256"
        },
        {
          "internalType": "uint256",
          "name": "tokenId",
          "type": "uint256"
        }
      ],
      "name": "putTokenForSale",
      "outputs": [],
      "stateMutability": "nonpayable",
      "type": "function"
    },
    {
      "inputs": [
        {
          "internalType": "uint256",
          "name": "tokenId",
          "type": "uint256"
        },
        {
          "internalType": "address",
          "name": "_tokenRecipient",
          "type": "address"
        }
      ],
      "name": "buyToken",
      "outputs": [],
      "stateMutability": "payable",
      "type": "function"
    },
    {
      "inputs": [
        {
          "internalType": "uint256",
          "name": "_newPrice",
          "type": "uint256"
        },
        {
          "internalType": "uint256",
          "name": "tokenId",
          "type": "uint256"
        },
        {
          "internalType": "uint256",
          "name": "_numberofBlocksToRent",
          "type": "uint256"
        }
      ],
      "name": "putForRent",
      "outputs": [],
      "stateMutability": "nonpayable",
      "type": "function"
    },
    {
      "inputs": [
        {
          "internalType": "uint256",
          "name": "tokenId",
          "type": "uint256"
        }
      ],
      "name": "rentToken",
      "outputs": [],
      "stateMutability": "payable",
      "type": "function"
    },
    {
      "inputs": [
        {
          "internalType": "uint256",
          "name": "tokenId",
          "type": "uint256"
        },
        {
          "internalType": "string",
          "name": "_uniqueCIDfortoken",
          "type": "string"
        }
      ],
      "name": "setTokenURI",
      "outputs": [],
      "stateMutability": "nonpayable",
      "type": "function"
    },
    {
      "inputs": [
        {
          "internalType": "uint256",
          "name": "tokenId",
          "type": "uint256"
        }
      ],
      "name": "consumeContent",
      "outputs": [
        {
          "internalType": "string",
          "name": "",
          "type": "string"
        }
      ],
      "stateMutability": "view",
      "type": "function"
    },
    {
      "inputs": [
        {
          "internalType": "uint256",
          "name": "_tokenId",
          "type": "uint256"
        }
      ],
      "name": "viewTokenDetails",
      "outputs": [
        {
          "internalType": "uint256",
          "name": "",
          "type": "uint256"
        },
        {
          "internalType": "string",
          "name": "",
          "type": "string"
        },
        {
          "internalType": "uint256",
          "name": "",
          "type": "uint256"
        },
        {
          "internalType": "uint256",
          "name": "",
          "type": "uint256"
        },
        {
          "internalType": "bool",
          "name": "",
          "type": "bool"
        }
      ],
      "stateMutability": "view",
      "type": "function"
    },
    {
      "inputs": [
        {
          "internalType": "uint256",
          "name": "_tokenId",
          "type": "uint256"
        }
      ],
      "name": "viewRentingTokenDetails",
      "outputs": [
        {
          "internalType": "uint256",
          "name": "",
          "type": "uint256"
        },
        {
          "internalType": "string",
          "name": "",
          "type": "string"
        },
        {
          "internalType": "uint256",
          "name": "",
          "type": "uint256"
        },
        {
          "internalType": "uint256",
          "name": "",
          "type": "uint256"
        },
        {
          "internalType": "uint256",
          "name": "",
          "type": "uint256"
        },
        {
          "internalType": "uint256",
          "name": "",
          "type": "uint256"
        },
        {
          "internalType": "bool",
          "name": "",
          "type": "bool"
        }
      ],
      "stateMutability": "view",
      "type": "function"
    },
    {
      "inputs": [],
      "name": "numberofTokensForResale",
      "outputs": [
        {
          "internalType": "uint256",
          "name": "",
          "type": "uint256"
        }
      ],
      "stateMutability": "view",
      "type": "function"
    },
    {
      "inputs": [
        {
          "internalType": "uint256",
          "name": "index",
          "type": "uint256"
        }
      ],
      "name": "tokenForResaleAtIndex",
      "outputs": [
        {
          "internalType": "uint256",
          "name": "",
          "type": "uint256"
        }
      ],
      "stateMutability": "view",
      "type": "function"
    },
    {
      "inputs": [],
      "name": "numberofTokensForRenting",
      "outputs": [
        {
          "internalType": "uint256",
          "name": "",
          "type": "uint256"
        }
      ],
      "stateMutability": "view",
      "type": "function"
    },
    {
      "inputs": [
        {
          "internalType": "uint256",
          "name": "index",
          "type": "uint256"
        }
      ],
      "name": "tokenForRentingAtIndex",
      "outputs": [
        {
          "internalType": "uint256",
          "name": "",
          "type": "uint256"
        }
      ],
      "stateMutability": "view",
      "type": "function"
    },
    {
      "inputs": [
        {
          "internalType": "address",
          "name": "_rentee",
          "type": "address"
        }
      ],
      "name": "numberOfRentedTokens",
      "outputs": [
        {
          "internalType": "uint256",
          "name": "",
          "type": "uint256"
        }
      ],
      "stateMutability": "view",
      "type": "function"
    },
    {
      "inputs": [
        {
          "internalType": "address",
          "name": "_rentee",
          "type": "address"
        },
        {
          "internalType": "uint256",
          "name": "index",
          "type": "uint256"
        }
      ],
      "name": "tokenOfRenteeByIndex",
      "outputs": [
        {
          "internalType": "uint256",
          "name": "",
          "type": "uint256"
        }
      ],
      "stateMutability": "view",
      "type": "function"
    },
    {
      "inputs": [
        {
          "internalType": "uint256",
          "name": "_isbn",
          "type": "uint256"
        }
      ],
      "name": "viewBookDetails",
      "outputs": [
        {
          "internalType": "string",
          "name": "",
          "type": "string"
        },
        {
          "internalType": "address",
          "name": "",
          "type": "address"
        },
        {
          "internalType": "uint256",
          "name": "",
          "type": "uint256"
        },
        {
          "internalType": "uint256",
          "name": "",
          "type": "uint256"
        },
        {
          "internalType": "uint256",
          "name": "",
          "type": "uint256"
        }
      ],
      "stateMutability": "view",
      "type": "function"
    },
    {
      "inputs": [
        {
          "internalType": "uint256",
          "name": "_isbn",
          "type": "uint256"
        }
      ],
      "name": "viewMyBookDetails",
      "outputs": [
        {
          "internalType": "string",
          "name": "",
          "type": "string"
        },
        {
          "internalType": "string",
          "name": "",
          "type": "string"
        },
        {
          "internalType": "address",
          "name": "",
          "type": "address"
        },
        {
          "internalType": "uint256",
          "name": "",
          "type": "uint256"
        },
        {
          "internalType": "uint256",
          "name": "",
          "type": "uint256"
        },
        {
          "internalType": "uint256",
          "name": "",
          "type": "uint256"
        }
      ],
      "stateMutability": "view",
      "type": "function"
    }
  ],
  "bytecode": "0x60806040523480156200001157600080fd5b506040518060400160405280600a81526020017f5072616e61426f6f6b73000000000000000000000000000000000000000000008152506040518060400160405280600381526020017f5042540000000000000000000000000000000000000000000000000000000000815250620000966301ffc9a760e01b6200015960201b60201c565b8160069080519060200190620000ae92919062000262565b508060079080519060200190620000c792919062000262565b50620000e06380ac58cd60e01b6200015960201b60201c565b620000f8635b5e139f60e01b6200015960201b60201c565b6200011063780e9d6360e01b6200015960201b60201c565b505033600b60006101000a81548173ffffffffffffffffffffffffffffffffffffffff021916908373ffffffffffffffffffffffffffffffffffffffff16021790555062000308565b63ffffffff60e01b817bffffffffffffffffffffffffffffffffffffffffffffffffffffffff19161415620001f6576040517f08c379a000000000000000000000000000000000000000000000000000000000815260040180806020018281038252601c8152602001807f4552433136353a20696e76616c696420696e746572666163652069640000000081525060200191505060405180910390fd5b6001600080837bffffffffffffffffffffffffffffffffffffffffffffffffffffffff19167bffffffffffffffffffffffffffffffffffffffffffffffffffffffff1916815260200190815260200160002060006101000a81548160ff02191690831515021790555050565b828054600181600116156101000203166002900490600052602060002090601f016020900481019282601f10620002a557805160ff1916838001178555620002d6565b82800160010185558215620002d6579182015b82811115620002d5578251825591602001919060010190620002b8565b5b509050620002e59190620002e9565b5090565b5b8082111562000304576000816000905550600101620002ea565b5090565b615ead80620003186000396000f3fe60806040526004361061020f5760003560e01c80639134709e11610118578063c29174db116100a0578063df2581b81161006f578063df2581b81461128c578063e985e9c514611340578063eb4880f4146113c7578063ee88248914611418578063f01a48991461145d5761020f565b8063c29174db14611130578063c87b56dd1461115b578063cb0025141461120f578063d1e306931461125e5761020f565b8063a22cb465116100e7578063a22cb46514610dde578063a27091fd14610e3b578063a78dbf8814610e66578063b28dbb4214610f4c578063b88d4fde1461101e5761020f565b80639134709e14610bd157806393f22e4914610c1f57806395d89b4114610c6e5780639d5c7c6c14610cfe5761020f565b8063343ea6261161019b57806352664d4e1161016a57806352664d4e146109b95780636352211e14610a285780636c0360eb14610a8d57806370a0823114610b1d57806375bc852814610b825761020f565b8063343ea6261461062057806342842e0e1461079d5780634ae010d8146108185780634f6ccce71461096a5761020f565b8063095ea7b3116101e2578063095ea7b3146103de578063162094c41461043957806318160ddd1461050b57806323b872dd146105365780632f745c59146105b15761020f565b806301ffc9a71461021457806303981aff1461028457806306fdde03146102e9578063081812fc14610379575b600080fd5b34801561022057600080fd5b5061026c6004803603602081101561023757600080fd5b8101908080357bffffffffffffffffffffffffffffffffffffffffffffffffffffffff191690602001909291905050506114a1565b60405180821515815260200191505060405180910390f35b34801561029057600080fd5b506102d3600480360360208110156102a757600080fd5b81019080803573ffffffffffffffffffffffffffffffffffffffff169060200190929190505050611508565b6040518082815260200191505060405180910390f35b3480156102f557600080fd5b506102fe6115fa565b6040518080602001828103825283818151815260200191508051906020019080838360005b8381101561033e578082015181840152602081019050610323565b50505050905090810190601f16801561036b5780820380516001836020036101000a031916815260200191505b509250505060405180910390f35b34801561038557600080fd5b506103b26004803603602081101561039c57600080fd5b810190808035906020019092919050505061169c565b604051808273ffffffffffffffffffffffffffffffffffffffff16815260200191505060405180910390f35b3480156103ea57600080fd5b506104376004803603604081101561040157600080fd5b81019080803573ffffffffffffffffffffffffffffffffffffffff16906020019092919080359060200190929190505050611737565b005b34801561044557600080fd5b506105096004803603604081101561045c57600080fd5b81019080803590602001909291908035906020019064010000000081111561048357600080fd5b82018360208201111561049557600080fd5b803590602001918460018302840111640100000000831117156104b757600080fd5b91908080601f016020809104026020016040519081016040528093929190818152602001838380828437600081840152601f19601f82011690508083019250505050505050919291929050505061187b565b005b34801561051757600080fd5b50610520611932565b6040518082815260200191505060405180910390f35b34801561054257600080fd5b506105af6004803603606081101561055957600080fd5b81019080803573ffffffffffffffffffffffffffffffffffffffff169060200190929190803573ffffffffffffffffffffffffffffffffffffffff16906020019092919080359060200190929190505050611943565b005b3480156105bd57600080fd5b5061060a600480360360408110156105d457600080fd5b81019080803573ffffffffffffffffffffffffffffffffffffffff169060200190929190803590602001909291905050506119b9565b6040518082815260200191505060405180910390f35b34801561062c57600080fd5b5061079b600480360360a081101561064357600080fd5b810190808035906020019064010000000081111561066057600080fd5b82018360208201111561067257600080fd5b8035906020019184600183028401116401000000008311171561069457600080fd5b91908080601f016020809104026020016040519081016040528093929190818152602001838380828437600081840152601f19601f82011690508083019250505050505050919291929080359060200190929190803590602001909291908035906020019064010000000081111561070b57600080fd5b82018360208201111561071d57600080fd5b8035906020019184600183028401116401000000008311171561073f57600080fd5b91908080601f016020809104026020016040519081016040528093929190818152602001838380828437600081840152601f19601f82011690508083019250505050505050919291929080359060200190929190505050611a14565b005b3480156107a957600080fd5b50610816600480360360608110156107c057600080fd5b81019080803573ffffffffffffffffffffffffffffffffffffffff169060200190929190803573ffffffffffffffffffffffffffffffffffffffff16906020019092919080359060200190929190505050611cf5565b005b34801561082457600080fd5b506108516004803603602081101561083b57600080fd5b8101908080359060200190929190505050611d15565b6040518080602001806020018773ffffffffffffffffffffffffffffffffffffffff168152602001868152602001858152602001848152602001838103835289818151815260200191508051906020019080838360005b838110156108c35780820151818401526020810190506108a8565b50505050905090810190601f1680156108f05780820380516001836020036101000a031916815260200191505b50838103825288818151815260200191508051906020019080838360005b8381101561092957808201518184015260208101905061090e565b50505050905090810190601f1680156109565780820380516001836020036101000a031916815260200191505b509850505050505050505060405180910390f35b34801561097657600080fd5b506109a36004803603602081101561098d57600080fd5b81019080803590602001909291905050506120c3565b6040518082815260200191505060405180910390f35b3480156109c557600080fd5b50610a12600480360360408110156109dc57600080fd5b81019080803573ffffffffffffffffffffffffffffffffffffffff169060200190929190803590602001909291905050506120e6565b6040518082815260200191505060405180910390f35b348015610a3457600080fd5b50610a6160048036036020811015610a4b57600080fd5b81019080803590602001909291905050506121e3565b604051808273ffffffffffffffffffffffffffffffffffffffff16815260200191505060405180910390f35b348015610a9957600080fd5b50610aa261221a565b6040518080602001828103825283818151815260200191508051906020019080838360005b83811015610ae2578082015181840152602081019050610ac7565b50505050905090810190601f168015610b0f5780820380516001836020036101000a031916815260200191505b509250505060405180910390f35b348015610b2957600080fd5b50610b6c60048036036020811015610b4057600080fd5b81019080803573ffffffffffffffffffffffffffffffffffffffff1690602001909291905050506122bc565b6040518082815260200191505060405180910390f35b348015610b8e57600080fd5b50610bbb60048036036020811015610ba557600080fd5b8101908080359060200190929190505050612391565b6040518082815260200191505060405180910390f35b610c1d60048036036040811015610be757600080fd5b8101908080359060200190929190803573ffffffffffffffffffffffffffffffffffffffff1690602001909291905050506123ae565b005b348015610c2b57600080fd5b50610c5860048036036020811015610c4257600080fd5b81019080803590602001909291905050506124b4565b6040518082815260200191505060405180910390f35b348015610c7a57600080fd5b50610c836124d1565b6040518080602001828103825283818151815260200191508051906020019080838360005b83811015610cc3578082015181840152602081019050610ca8565b50505050905090810190601f168015610cf05780820380516001836020036101000a031916815260200191505b509250505060405180910390f35b348015610d0a57600080fd5b50610d3760048036036020811015610d2157600080fd5b8101908080359060200190929190505050612573565b60405180888152602001806020018781526020018681526020018581526020018481526020018315158152602001828103825288818151815260200191508051906020019080838360005b83811015610d9d578082015181840152602081019050610d82565b50505050905090810190601f168015610dca5780820380516001836020036101000a031916815260200191505b509850505050505050505060405180910390f35b348015610dea57600080fd5b50610e3960048036036040811015610e0157600080fd5b81019080803573ffffffffffffffffffffffffffffffffffffffff169060200190929190803515159060200190929190505050612772565b005b348015610e4757600080fd5b50610e50612928565b6040518082815260200191505060405180910390f35b348015610e7257600080fd5b50610e9f60048036036020811015610e8957600080fd5b8101908080359060200190929190505050612939565b60405180806020018673ffffffffffffffffffffffffffffffffffffffff168152602001858152602001848152602001838152602001828103825287818151815260200191508051906020019080838360005b83811015610f0d578082015181840152602081019050610ef2565b50505050905090810190601f168015610f3a5780820380516001836020036101000a031916815260200191505b50965050505050505060405180910390f35b348015610f5857600080fd5b50610f8560048036036020811015610f6f57600080fd5b8101908080359060200190929190505050612b5b565b60405180868152602001806020018581526020018481526020018315158152602001828103825286818151815260200191508051906020019080838360005b83811015610fdf578082015181840152602081019050610fc4565b50505050905090810190601f16801561100c5780820380516001836020036101000a031916815260200191505b50965050505050505060405180910390f35b34801561102a57600080fd5b5061112e6004803603608081101561104157600080fd5b81019080803573ffffffffffffffffffffffffffffffffffffffff169060200190929190803573ffffffffffffffffffffffffffffffffffffffff16906020019092919080359060200190929190803590602001906401000000008111156110a857600080fd5b8201836020820111156110ba57600080fd5b803590602001918460018302840111640100000000831117156110dc57600080fd5b91908080601f016020809104026020016040519081016040528093929190818152602001838380828437600081840152601f19601f820116905080830192505050505050509192919290505050612d23565b005b34801561113c57600080fd5b50611145612d9b565b6040518082815260200191505060405180910390f35b34801561116757600080fd5b506111946004803603602081101561117e57600080fd5b8101908080359060200190929190505050612dac565b6040518080602001828103825283818151815260200191508051906020019080838360005b838110156111d45780820151818401526020810190506111b9565b50505050905090810190601f1680156112015780820380516001836020036101000a031916815260200191505b509250505060405180910390f35b34801561121b57600080fd5b5061125c6004803603606081101561123257600080fd5b81019080803590602001909291908035906020019092919080359060200190929190505050613095565b005b61128a6004803603602081101561127457600080fd5b81019080803590602001909291905050506133c9565b005b34801561129857600080fd5b506112c5600480360360208110156112af57600080fd5b810190808035906020019092919050505061376d565b6040518080602001828103825283818151815260200191508051906020019080838360005b838110156113055780820151818401526020810190506112ea565b50505050905090810190601f1680156113325780820380516001836020036101000a031916815260200191505b509250505060405180910390f35b34801561134c57600080fd5b506113af6004803603604081101561136357600080fd5b81019080803573ffffffffffffffffffffffffffffffffffffffff169060200190929190803573ffffffffffffffffffffffffffffffffffffffff169060200190929190505050613b75565b60405180821515815260200191505060405180910390f35b3480156113d357600080fd5b50611416600480360360208110156113ea57600080fd5b81019080803573ffffffffffffffffffffffffffffffffffffffff169060200190929190505050613c09565b005b34801561142457600080fd5b5061145b6004803603604081101561143b57600080fd5b810190808035906020019092919080359060200190929190505050613cf3565b005b6114896004803603602081101561147357600080fd5b8101908080359060200190929190505050613fed565b60405180821515815260200191505060405180910390f35b6000806000837bffffffffffffffffffffffffffffffffffffffffffffffffffffffff19167bffffffffffffffffffffffffffffffffffffffffffffffffffffffff1916815260200190815260200160002060009054906101000a900460ff169050919050565b60008073ffffffffffffffffffffffffffffffffffffffff168273ffffffffffffffffffffffffffffffffffffffff1614156115ac576040517f08c379a000000000000000000000000000000000000000000000000000000000815260040180806020018281038252601c8152602001807f5a65726f20416464726573732c2063616e2774206c6f6f6b2075702e0000000081525060200191505060405180910390fd5b6115f3601360008473ffffffffffffffffffffffffffffffffffffffff1673ffffffffffffffffffffffffffffffffffffffff1681526020019081526020016000206142df565b9050919050565b606060068054600181600116156101000203166002900480601f0160208091040260200160405190810160405280929190818152602001828054600181600116156101000203166002900480156116925780601f1061166757610100808354040283529160200191611692565b820191906000526020600020905b81548152906001019060200180831161167557829003601f168201915b5050505050905090565b60006116a7826142f4565b6116fc576040517f08c379a000000000000000000000000000000000000000000000000000000000815260040180806020018281038252602c815260200180615cd7602c913960400191505060405180910390fd5b6004600083815260200190815260200160002060009054906101000a900473ffffffffffffffffffffffffffffffffffffffff169050919050565b6000611742826121e3565b90508073ffffffffffffffffffffffffffffffffffffffff168373ffffffffffffffffffffffffffffffffffffffff1614156117c9576040517f08c379a0000000000000000000000000000000000000000000000000000000008152600401808060200182810382526021815260200180615dc56021913960400191505060405180910390fd5b8073ffffffffffffffffffffffffffffffffffffffff166117e8614311565b73ffffffffffffffffffffffffffffffffffffffff161480611817575061181681611811614311565b613b75565b5b61186c576040517f08c379a0000000000000000000000000000000000000000000000000000000008152600401808060200182810382526038815260200180615bbc6038913960400191505060405180910390fd5b6118768383614319565b505050565b3373ffffffffffffffffffffffffffffffffffffffff1661189b836121e3565b73ffffffffffffffffffffffffffffffffffffffff1614611924576040517f08c379a000000000000000000000000000000000000000000000000000000000815260040180806020018281038252601b8152602001807f596f7520617265206e6f742074686520746f6b656e206f776e6572000000000081525060200191505060405180910390fd5b61192e82826143d2565b5050565b600061193e600261445c565b905090565b61195461194e614311565b82614471565b6119a9576040517f08c379a0000000000000000000000000000000000000000000000000000000008152600401808060200182810382526031815260200180615de66031913960400191505060405180910390fd5b6119b4838383614565565b505050565b6000611a0c82600160008673ffffffffffffffffffffffffffffffffffffffff1673ffffffffffffffffffffffffffffffffffffffff1681526020019081526020016000206147a890919063ffffffff16565b905092915050565b600073ffffffffffffffffffffffffffffffffffffffff166011600086815260200190815260200160002060020160009054906101000a900473ffffffffffffffffffffffffffffffffffffffff1673ffffffffffffffffffffffffffffffffffffffff1614611acf576040517f08c379a0000000000000000000000000000000000000000000000000000000008152600401808060200182810382526025815260200180615aa76025913960400191505060405180910390fd5b600081118015611adf5750605081105b611b34576040517f08c379a000000000000000000000000000000000000000000000000000000000815260040180806020018281038252602c815260200180615e17602c913960400191505060405180910390fd5b84601160008681526020019081526020016000206000019080519060200190611b5e929190615878565b50336011600086815260200190815260200160002060020160006101000a81548173ffffffffffffffffffffffffffffffffffffffff021916908373ffffffffffffffffffffffffffffffffffffffff16021790555082601160008681526020019081526020016000206003018190555081601160008681526020019081526020016000206001019080519060200190611bf9929190615878565b508060116000868152602001908152602001600020600401819055506000601160008681526020019081526020016000206005018190555082843373ffffffffffffffffffffffffffffffffffffffff167f464bf690f3d3e19892f2be39fb8ad47b2ed271a55dd628889035458a52e3d97985856040518080602001838152602001828103825284818151815260200191508051906020019080838360005b83811015611cb3578082015181840152602081019050611c98565b50505050905090810190601f168015611ce05780820380516001836020036101000a031916815260200191505b50935050505060405180910390a45050505050565b611d1083838360405180602001604052806000815250612d23565b505050565b606080600080600080600073ffffffffffffffffffffffffffffffffffffffff166011600089815260200190815260200160002060020160009054906101000a900473ffffffffffffffffffffffffffffffffffffffff1673ffffffffffffffffffffffffffffffffffffffff161415611df7576040517f08c379a00000000000000000000000000000000000000000000000000000000081526004018080602001828103825260208152602001807f5468697320626f6f6b206973206e6f74206f6e2074686520706c6174666f726d81525060200191505060405180910390fd5b6011600088815260200190815260200160002060020160009054906101000a900473ffffffffffffffffffffffffffffffffffffffff1673ffffffffffffffffffffffffffffffffffffffff163373ffffffffffffffffffffffffffffffffffffffff1614611ece576040517f08c379a000000000000000000000000000000000000000000000000000000000815260040180806020018281038252601e8152602001807f596f7520617265206e6f74207468697320626f6f6b277320617574686f72000081525060200191505060405180910390fd5b6011600088815260200190815260200160002060000160116000898152602001908152602001600020600101601160008a815260200190815260200160002060020160009054906101000a900473ffffffffffffffffffffffffffffffffffffffff16601160008b815260200190815260200160002060030154601160008c815260200190815260200160002060040154601160008d815260200190815260200160002060050154858054600181600116156101000203166002900480601f01602080910402602001604051908101604052809291908181526020018280546001816001161561010002031660029004801561200b5780601f10611fe05761010080835404028352916020019161200b565b820191906000526020600020905b815481529060010190602001808311611fee57829003601f168201915b50505050509550848054600181600116156101000203166002900480601f0160208091040260200160405190810160405280929190818152602001828054600181600116156101000203166002900480156120a75780601f1061207c576101008083540402835291602001916120a7565b820191906000526020600020905b81548152906001019060200180831161208a57829003601f168201915b5050505050945095509550955095509550955091939550919395565b6000806120da8360026147c290919063ffffffff16565b50905080915050919050565b60008073ffffffffffffffffffffffffffffffffffffffff168373ffffffffffffffffffffffffffffffffffffffff16141561218a576040517f08c379a000000000000000000000000000000000000000000000000000000000815260040180806020018281038252601c8152602001807f5a65726f20416464726573732c2063616e2774206c6f6f6b2075702e0000000081525060200191505060405180910390fd5b6121db82601360008673ffffffffffffffffffffffffffffffffffffffff1673ffffffffffffffffffffffffffffffffffffffff1681526020019081526020016000206147a890919063ffffffff16565b905092915050565b600061221382604051806060016040528060298152602001615c4b6029913960026147ee9092919063ffffffff16565b9050919050565b606060098054600181600116156101000203166002900480601f0160208091040260200160405190810160405280929190818152602001828054600181600116156101000203166002900480156122b25780601f10612287576101008083540402835291602001916122b2565b820191906000526020600020905b81548152906001019060200180831161229557829003601f168201915b5050505050905090565b60008073ffffffffffffffffffffffffffffffffffffffff168273ffffffffffffffffffffffffffffffffffffffff161415612343576040517f08c379a000000000000000000000000000000000000000000000000000000000815260040180806020018281038252602a815260200180615c21602a913960400191505060405180910390fd5b61238a600160008473ffffffffffffffffffffffffffffffffffffffff1673ffffffffffffffffffffffffffffffffffffffff1681526020019081526020016000206142df565b9050919050565b60006123a782600d6147a890919063ffffffff16565b9050919050565b600115156012600084815260200190815260200160002060030160009054906101000a900460ff1615151461242e576040517f08c379a000000000000000000000000000000000000000000000000000000000815260040180806020018281038252603681526020018061596a6036913960400191505060405180910390fd5b601260008381526020019081526020016000206002015434101561249d576040517f08c379a0000000000000000000000000000000000000000000000000000000008152600401808060200182810382526024815260200180615b596024913960400191505060405180910390fd5b6124b06124a9836121e3565b8284611cf5565b5050565b60006124ca82600f6147a890919063ffffffff16565b9050919050565b606060078054600181600116156101000203166002900480601f0160208091040260200160405190810160405280929190818152602001828054600181600116156101000203166002900480156125695780601f1061253e57610100808354040283529160200191612569565b820191906000526020600020905b81548152906001019060200180831161254c57829003601f168201915b5050505050905090565b600060606000806000806000612588886142f4565b6125fa576040517f08c379a00000000000000000000000000000000000000000000000000000000081526004018080602001828103825260148152602001807f546f6b656e20646f65736e27742020657869737400000000000000000000000081525060200191505060405180910390fd5b601260008981526020019081526020016000206000015460116000601260008c8152602001908152602001600020600001548152602001908152602001600020600101601260008b815260200190815260200160002060010154601260008c815260200190815260200160002060060154601260008d815260200190815260200160002060040154601260008e815260200190815260200160002060070154601260008f815260200190815260200160002060050160009054906101000a900460ff16858054600181600116156101000203166002900480601f0160208091040260200160405190810160405280929190818152602001828054600181600116156101000203166002900480156127525780601f1061272757610100808354040283529160200191612752565b820191906000526020600020905b81548152906001019060200180831161273557829003601f168201915b505050505095509650965096509650965096509650919395979092949650565b61277a614311565b73ffffffffffffffffffffffffffffffffffffffff168273ffffffffffffffffffffffffffffffffffffffff16141561281b576040517f08c379a00000000000000000000000000000000000000000000000000000000081526004018080602001828103825260198152602001807f4552433732313a20617070726f766520746f2063616c6c65720000000000000081525060200191505060405180910390fd5b8060056000612828614311565b73ffffffffffffffffffffffffffffffffffffffff1673ffffffffffffffffffffffffffffffffffffffff16815260200190815260200160002060008473ffffffffffffffffffffffffffffffffffffffff1673ffffffffffffffffffffffffffffffffffffffff16815260200190815260200160002060006101000a81548160ff0219169083151502179055508173ffffffffffffffffffffffffffffffffffffffff166128d5614311565b73ffffffffffffffffffffffffffffffffffffffff167f17307eab39ab6107e8899845ad3d59bd9653f200f220920489ca2b5937696c318360405180821515815260200191505060405180910390a35050565b6000612934600d6142df565b905090565b6060600080600080600073ffffffffffffffffffffffffffffffffffffffff166011600088815260200190815260200160002060020160009054906101000a900473ffffffffffffffffffffffffffffffffffffffff1673ffffffffffffffffffffffffffffffffffffffff161415612a1a576040517f08c379a00000000000000000000000000000000000000000000000000000000081526004018080602001828103825260208152602001807f5468697320626f6f6b206973206e6f74206f6e2074686520706c6174666f726d81525060200191505060405180910390fd5b601160008781526020019081526020016000206001016011600088815260200190815260200160002060020160009054906101000a900473ffffffffffffffffffffffffffffffffffffffff166011600089815260200190815260200160002060030154601160008a815260200190815260200160002060040154601160008b815260200190815260200160002060050154848054600181600116156101000203166002900480601f016020809104026020016040519081016040528092919081815260200182805460018160011615610100020316600290048015612b415780601f10612b1657610100808354040283529160200191612b41565b820191906000526020600020905b815481529060010190602001808311612b2457829003601f168201915b505050505094509450945094509450945091939590929450565b600060606000806000612b6d866142f4565b612bdf576040517f08c379a00000000000000000000000000000000000000000000000000000000081526004018080602001828103825260148152602001807f546f6b656e20646f65736e27742020657869737400000000000000000000000081525060200191505060405180910390fd5b601260008781526020019081526020016000206000015460116000601260008a81526020019081526020016000206000015481526020019081526020016000206001016012600089815260200190815260200160002060010154601260008a815260200190815260200160002060020154601260008b815260200190815260200160002060030160009054906101000a900460ff16838054600181600116156101000203166002900480601f016020809104026020016040519081016040528092919081815260200182805460018160011615610100020316600290048015612d095780601f10612cde57610100808354040283529160200191612d09565b820191906000526020600020905b815481529060010190602001808311612cec57829003601f168201915b505050505093509450945094509450945091939590929450565b612d34612d2e614311565b83614471565b612d89576040517f08c379a0000000000000000000000000000000000000000000000000000000008152600401808060200182810382526031815260200180615de66031913960400191505060405180910390fd5b612d958484848461480d565b50505050565b6000612da7600f6142df565b905090565b6060612db7826142f4565b612e0c576040517f08c379a000000000000000000000000000000000000000000000000000000000815260040180806020018281038252602f815260200180615d58602f913960400191505060405180910390fd5b6060600860008481526020019081526020016000208054600181600116156101000203166002900480601f016020809104026020016040519081016040528092919081815260200182805460018160011615610100020316600290048015612eb55780601f10612e8a57610100808354040283529160200191612eb5565b820191906000526020600020905b815481529060010190602001808311612e9857829003601f168201915b50505050509050600060098054600181600116156101000203166002900490501415612ee45780915050613090565b600081511115612fbd576009816040516020018083805460018160011615610100020316600290048015612f4f5780601f10612f2d576101008083540402835291820191612f4f565b820191906000526020600020905b815481529060010190602001808311612f3b575b505082805190602001908083835b60208310612f805780518252602082019150602081019050602083039250612f5d565b6001836020036101000a03801982511681845116808217855250505050505090500192505050604051602081830303815290604052915050613090565b6009612fc88461487f565b60405160200180838054600181600116156101000203166002900480156130265780601f10613004576101008083540402835291820191613026565b820191906000526020600020905b815481529060010190602001808311613012575b505082805190602001908083835b602083106130575780518252602082019150602081019050602083039250613034565b6001836020036101000a038019825116818451168082178552505050505050905001925050506040516020818303038152906040529150505b919050565b61309e826121e3565b73ffffffffffffffffffffffffffffffffffffffff163373ffffffffffffffffffffffffffffffffffffffff161461313e576040517f08c379a000000000000000000000000000000000000000000000000000000000815260040180806020018281038252601e8152602001807f596f7520617265206e6f74207468697320746f6b656e2773206f776e6572000081525060200191505060405180910390fd5b600015156012600084815260200190815260200160002060030160009054906101000a900460ff161515146131be576040517f08c379a0000000000000000000000000000000000000000000000000000000008152600401808060200182810382526038815260200180615acc6038913960400191505060405180910390fd5b600073ffffffffffffffffffffffffffffffffffffffff166012600084815260200190815260200160002060050160019054906101000a900473ffffffffffffffffffffffffffffffffffffffff1673ffffffffffffffffffffffffffffffffffffffff16146132af57601260008381526020019081526020016000206007015460126000848152602001908152602001600020600601540143116132ae576040517f08c379a000000000000000000000000000000000000000000000000000000000815260040180806020018281038252603e815260200180615d87603e913960400191505060405180910390fd5b5b82601260008481526020019081526020016000206004018190555060016012600084815260200190815260200160002060050160006101000a81548160ff02191690831515021790555060006012600084815260200190815260200160002060050160016101000a81548173ffffffffffffffffffffffffffffffffffffffff021916908373ffffffffffffffffffffffffffffffffffffffff16021790555080601260008481526020019081526020016000206007018190555061337e82600f6149c690919063ffffffff16565b50816012600084815260200190815260200160002060000154847fe90ddca2005d74ee3e3ada587c65dfcab2f807f66782aa2b197f196ebc05217460405160405180910390a4505050565b600115156012600083815260200190815260200160002060050160009054906101000a900460ff16151514613449576040517f08c379a00000000000000000000000000000000000000000000000000000000081526004018080602001828103825260328152602001806159166032913960400191505060405180910390fd5b600073ffffffffffffffffffffffffffffffffffffffff166012600083815260200190815260200160002060050160019054906101000a900473ffffffffffffffffffffffffffffffffffffffff1673ffffffffffffffffffffffffffffffffffffffff1614613504576040517f08c379a000000000000000000000000000000000000000000000000000000000815260040180806020018281038252602c8152602001806159fc602c913960400191505060405180910390fd5b6012600082815260200190815260200160002060040154341015613573576040517f08c379a000000000000000000000000000000000000000000000000000000000815260040180806020018281038252602d815260200180615bf4602d913960400191505060405180910390fd5b61357c816121e3565b73ffffffffffffffffffffffffffffffffffffffff163373ffffffffffffffffffffffffffffffffffffffff161415613600576040517f08c379a0000000000000000000000000000000000000000000000000000000008152600401808060200182810382526026815260200180615a286026913960400191505060405180910390fd5b336012600083815260200190815260200160002060050160016101000a81548173ffffffffffffffffffffffffffffffffffffffff021916908373ffffffffffffffffffffffffffffffffffffffff16021790555043601260008381526020019081526020016000206006018190555060006012600083815260200190815260200160002060050160006101000a81548160ff0219169083151502179055506136a8816149e0565b6136bc81600f614b3d90919063ffffffff16565b5061370e81601360003373ffffffffffffffffffffffffffffffffffffffff1673ffffffffffffffffffffffffffffffffffffffff1681526020019081526020016000206149c690919063ffffffff16565b503373ffffffffffffffffffffffffffffffffffffffff168160126000848152602001908152602001600020600001547f5faac23f0b6536f9cabd35fe9faf70af0b2adf251378e0b858966f80bebb024260405160405180910390a450565b60603373ffffffffffffffffffffffffffffffffffffffff1661378f836121e3565b73ffffffffffffffffffffffffffffffffffffffff16148061381257503373ffffffffffffffffffffffffffffffffffffffff166012600084815260200190815260200160002060050160019054906101000a900473ffffffffffffffffffffffffffffffffffffffff1673ffffffffffffffffffffffffffffffffffffffff16145b613867576040517f08c379a0000000000000000000000000000000000000000000000000000000008152600401808060200182810382526029815260200180615b306029913960400191505060405180910390fd5b3373ffffffffffffffffffffffffffffffffffffffff16613887836121e3565b73ffffffffffffffffffffffffffffffffffffffff16141561399957600073ffffffffffffffffffffffffffffffffffffffff166012600084815260200190815260200160002060050160019054906101000a900473ffffffffffffffffffffffffffffffffffffffff1673ffffffffffffffffffffffffffffffffffffffff16146139945760126000838152602001908152602001600020600701546012600084815260200190815260200160002060060154014311613993576040517f08c379a0000000000000000000000000000000000000000000000000000000008152600401808060200182810382526041815260200180615c746041913960600191505060405180910390fd5b5b613aa9565b3373ffffffffffffffffffffffffffffffffffffffff166012600084815260200190815260200160002060050160019054906101000a900473ffffffffffffffffffffffffffffffffffffffff1673ffffffffffffffffffffffffffffffffffffffff161415613aa8576012600083815260200190815260200160002060070154601260008481526020019081526020016000206006015401431115613aa7576040517f08c379a000000000000000000000000000000000000000000000000000000000815260040180806020018281038252601e8152602001807f596f75722072656e74616c20706572696f64206861732065787069726564000081525060200191505060405180910390fd5b5b5b60116000601260008581526020019081526020016000206000015481526020019081526020016000206000018054600181600116156101000203166002900480601f016020809104026020016040519081016040528092919081815260200182805460018160011615610100020316600290048015613b695780601f10613b3e57610100808354040283529160200191613b69565b820191906000526020600020905b815481529060010190602001808311613b4c57829003601f168201915b50505050509050919050565b6000600560008473ffffffffffffffffffffffffffffffffffffffff1673ffffffffffffffffffffffffffffffffffffffff16815260200190815260200160002060008373ffffffffffffffffffffffffffffffffffffffff1673ffffffffffffffffffffffffffffffffffffffff16815260200190815260200160002060009054906101000a900460ff16905092915050565b600b60009054906101000a900473ffffffffffffffffffffffffffffffffffffffff1673ffffffffffffffffffffffffffffffffffffffff163373ffffffffffffffffffffffffffffffffffffffff1614613caf576040517f08c379a0000000000000000000000000000000000000000000000000000000008152600401808060200182810382526035815260200180615a4e6035913960400191505060405180910390fd5b80600c60006101000a81548173ffffffffffffffffffffffffffffffffffffffff021916908373ffffffffffffffffffffffffffffffffffffffff16021790555050565b613cfc816121e3565b73ffffffffffffffffffffffffffffffffffffffff163373ffffffffffffffffffffffffffffffffffffffff1614613d9c576040517f08c379a000000000000000000000000000000000000000000000000000000000815260040180806020018281038252601e8152602001807f596f7520617265206e6f74207468697320746f6b656e2773206f776e6572000081525060200191505060405180910390fd5b600015156012600083815260200190815260200160002060050160009054906101000a900460ff16151514613e1c576040517f08c379a0000000000000000000000000000000000000000000000000000000008152600401808060200182810382526035815260200180615e436035913960400191505060405180910390fd5b6000821015613e93576040517f08c379a00000000000000000000000000000000000000000000000000000000081526004018080602001828103825260178152602001807f50726963652063616e2774206265206e6567617469766500000000000000000081525060200191505060405180910390fd5b43601260008381526020019081526020016000206007015460126000848152602001908152602001600020600601540110613f19576040517f08c379a000000000000000000000000000000000000000000000000000000000815260040180806020018281038252602a8152602001806159a0602a913960400191505060405180910390fd5b81601260008381526020019081526020016000206002018190555060016012600083815260200190815260200160002060030160006101000a81548160ff021916908315150217905550613f8f600c60009054906101000a900473ffffffffffffffffffffffffffffffffffffffff1682611737565b613fa381600d6149c690919063ffffffff16565b50806012600083815260200190815260200160002060000154837f9c8f609c71aa14f0f8cf09f1c3e8fbbbe92010d555840a9bb980359ee03c896360405160405180910390a45050565b60008073ffffffffffffffffffffffffffffffffffffffff166011600084815260200190815260200160002060020160009054906101000a900473ffffffffffffffffffffffffffffffffffffffff1673ffffffffffffffffffffffffffffffffffffffff1614156140c7576040517f08c379a00000000000000000000000000000000000000000000000000000000081526004018080602001828103825260158152602001807f4953424e20646f6573206e6f742065786973742021000000000000000000000081525060200191505060405180910390fd5b6011600083815260200190815260200160002060030154341015614136576040517f08c379a000000000000000000000000000000000000000000000000000000000815260040180806020018281038252603f815260200180615b7d603f913960400191505060405180910390fd5b6000614142600a614b57565b905061414e3382614b65565b614158600a614b83565b60116000848152602001908152602001600020600501600081548092919060010191905055508260126000838152602001908152602001600020600001819055506011600084815260200190815260200160002060050154601260008381526020019081526020016000206001018190555060006012600083815260200190815260200160002060050160016101000a81548173ffffffffffffffffffffffffffffffffffffffff021916908373ffffffffffffffffffffffffffffffffffffffff16021790555060006012600083815260200190815260200160002060060181905550600060126000838152602001908152602001600020600701819055506011600084815260200190815260200160002060020160009054906101000a900473ffffffffffffffffffffffffffffffffffffffff1673ffffffffffffffffffffffffffffffffffffffff166108fc349081150290604051600060405180830381858888f193505050501580156142d4573d6000803e3d6000fd5b506001915050919050565b60006142ed82600001614b99565b9050919050565b600061430a826002614baa90919063ffffffff16565b9050919050565b600033905090565b816004600083815260200190815260200160002060006101000a81548173ffffffffffffffffffffffffffffffffffffffff021916908373ffffffffffffffffffffffffffffffffffffffff160217905550808273ffffffffffffffffffffffffffffffffffffffff1661438c836121e3565b73ffffffffffffffffffffffffffffffffffffffff167f8c5be1e5ebec7d5bd14f71427d1e84f3dd0314c0f7b2291e5b200ac8c7c3b92560405160405180910390a45050565b6143db826142f4565b614430576040517f08c379a000000000000000000000000000000000000000000000000000000000815260040180806020018281038252602c815260200180615d03602c913960400191505060405180910390fd5b80600860008481526020019081526020016000209080519060200190614457929190615878565b505050565b600061446a82600001614bc4565b9050919050565b600061447c826142f4565b6144d1576040517f08c379a000000000000000000000000000000000000000000000000000000000815260040180806020018281038252602c815260200180615b04602c913960400191505060405180910390fd5b60006144dc836121e3565b90508073ffffffffffffffffffffffffffffffffffffffff168473ffffffffffffffffffffffffffffffffffffffff16148061454b57508373ffffffffffffffffffffffffffffffffffffffff166145338461169c565b73ffffffffffffffffffffffffffffffffffffffff16145b8061455c575061455b8185613b75565b5b91505092915050565b8273ffffffffffffffffffffffffffffffffffffffff16614585826121e3565b73ffffffffffffffffffffffffffffffffffffffff16146145f1576040517f08c379a0000000000000000000000000000000000000000000000000000000008152600401808060200182810382526029815260200180615d2f6029913960400191505060405180910390fd5b600073ffffffffffffffffffffffffffffffffffffffff168273ffffffffffffffffffffffffffffffffffffffff161415614677576040517f08c379a0000000000000000000000000000000000000000000000000000000008152600401808060200182810382526024815260200180615a836024913960400191505060405180910390fd5b614682838383614bd5565b61468d600082614319565b6146de81600160008673ffffffffffffffffffffffffffffffffffffffff1673ffffffffffffffffffffffffffffffffffffffff168152602001908152602001600020614b3d90919063ffffffff16565b5061473081600160008573ffffffffffffffffffffffffffffffffffffffff1673ffffffffffffffffffffffffffffffffffffffff1681526020019081526020016000206149c690919063ffffffff16565b5061474781836002614cd09092919063ffffffff16565b50808273ffffffffffffffffffffffffffffffffffffffff168473ffffffffffffffffffffffffffffffffffffffff167fddf252ad1be2c89b69c2b068fc378daa952ba7f163c4a11628f55a4df523b3ef60405160405180910390a4505050565b60006147b78360000183614d05565b60001c905092915050565b6000806000806147d58660000186614d88565b915091508160001c8160001c9350935050509250929050565b6000614801846000018460001b84614e21565b60001c90509392505050565b614818848484614565565b61482484848484614f17565b614879576040517f08c379a00000000000000000000000000000000000000000000000000000000081526004018080602001828103825260328152602001806159ca6032913960400191505060405180910390fd5b50505050565b606060008214156148c7576040518060400160405280600181526020017f300000000000000000000000000000000000000000000000000000000000000081525090506149c1565b600082905060005b600082146148f1578080600101915050600a82816148e957fe5b0491506148cf565b60608167ffffffffffffffff8111801561490a57600080fd5b506040519080825280601f01601f19166020018201604052801561493d5781602001600182028036833780820191505090505b50905060006001830390508593505b600084146149b957600a848161495e57fe5b0660300160f81b8282806001900393508151811061497857fe5b60200101907effffffffffffffffffffffffffffffffffffffffffffffffffffffffffffff1916908160001a905350600a84816149b157fe5b04935061494c565b819450505050505b919050565b60006149d8836000018360001b615130565b905092915050565b601160006012600084815260200190815260200160002060000154815260200190815260200160002060020160009054906101000a900473ffffffffffffffffffffffffffffffffffffffff1673ffffffffffffffffffffffffffffffffffffffff166108fc60643481614a5057fe5b04601160006012600087815260200190815260200160002060000154815260200190815260200160002060040154029081150290604051600060405180830381858888f19350505050158015614aaa573d6000803e3d6000fd5b506000614ab6826121e3565b90508073ffffffffffffffffffffffffffffffffffffffff166108fc60643481614adc57fe5b046011600060126000888152602001908152602001600020600001548152602001908152602001600020600401540234039081150290604051600060405180830381858888f19350505050158015614b38573d6000803e3d6000fd5b505050565b6000614b4f836000018360001b6151a0565b905092915050565b600081600001549050919050565b614b7f828260405180602001604052806000815250615288565b5050565b6001816000016000828254019250508190555050565b600081600001805490509050919050565b6000614bbc836000018360001b6152f9565b905092915050565b600081600001805490509050919050565b600073ffffffffffffffffffffffffffffffffffffffff168373ffffffffffffffffffffffffffffffffffffffff1614158015614c3f5750600073ffffffffffffffffffffffffffffffffffffffff168273ffffffffffffffffffffffffffffffffffffffff1614155b15614c58576000341115614c5757614c56816149e0565b5b5b60006012600083815260200190815260200160002060030160006101000a81548160ff02191690831515021790555060006012600083815260200190815260200160002060050160006101000a81548160ff021916908315150217905550614cca81600d614b3d90919063ffffffff16565b50505050565b6000614cfc846000018460001b8473ffffffffffffffffffffffffffffffffffffffff1660001b61531c565b90509392505050565b600081836000018054905011614d66576040517f08c379a00000000000000000000000000000000000000000000000000000000081526004018080602001828103825260228152602001806159486022913960400191505060405180910390fd5b826000018281548110614d7557fe5b9060005260206000200154905092915050565b60008082846000018054905011614dea576040517f08c379a0000000000000000000000000000000000000000000000000000000008152600401808060200182810382526022815260200180615cb56022913960400191505060405180910390fd5b6000846000018481548110614dfb57fe5b906000526020600020906002020190508060000154816001015492509250509250929050565b60008084600101600085815260200190815260200160002054905060008114158390614ee8576040517f08c379a00000000000000000000000000000000000000000000000000000000081526004018080602001828103825283818151815260200191508051906020019080838360005b83811015614ead578082015181840152602081019050614e92565b50505050905090810190601f168015614eda5780820380516001836020036101000a031916815260200191505b509250505060405180910390fd5b50846000016001820381548110614efb57fe5b9060005260206000209060020201600101549150509392505050565b6000614f388473ffffffffffffffffffffffffffffffffffffffff166153f8565b614f455760019050615128565b60606150af63150b7a0260e01b614f5a614311565b888787604051602401808573ffffffffffffffffffffffffffffffffffffffff1681526020018473ffffffffffffffffffffffffffffffffffffffff16815260200183815260200180602001828103825283818151815260200191508051906020019080838360005b83811015614fde578082015181840152602081019050614fc3565b50505050905090810190601f16801561500b5780820380516001836020036101000a031916815260200191505b5095505050505050604051602081830303815290604052907bffffffffffffffffffffffffffffffffffffffffffffffffffffffff19166020820180517bffffffffffffffffffffffffffffffffffffffffffffffffffffffff83818316178352505050506040518060600160405280603281526020016159ca603291398773ffffffffffffffffffffffffffffffffffffffff166154439092919063ffffffff16565b905060008180602001905160208110156150c857600080fd5b8101908080519060200190929190505050905063150b7a0260e01b7bffffffffffffffffffffffffffffffffffffffffffffffffffffffff1916817bffffffffffffffffffffffffffffffffffffffffffffffffffffffff191614925050505b949350505050565b600061513c838361545b565b61519557826000018290806001815401808255809150506001900390600052602060002001600090919091909150558260000180549050836001016000848152602001908152602001600020819055506001905061519a565b600090505b92915050565b6000808360010160008481526020019081526020016000205490506000811461527c57600060018203905060006001866000018054905003905060008660000182815481106151eb57fe5b906000526020600020015490508087600001848154811061520857fe5b906000526020600020018190555060018301876001016000838152602001908152602001600020819055508660000180548061524057fe5b60019003818190600052602060002001600090559055866001016000878152602001908152602001600020600090556001945050505050615282565b60009150505b92915050565b615292838361547e565b61529f6000848484614f17565b6152f4576040517f08c379a00000000000000000000000000000000000000000000000000000000081526004018080602001828103825260328152602001806159ca6032913960400191505060405180910390fd5b505050565b600080836001016000848152602001908152602001600020541415905092915050565b60008084600101600085815260200190815260200160002054905060008114156153c3578460000160405180604001604052808681526020018581525090806001815401808255809150506001900390600052602060002090600202016000909190919091506000820151816000015560208201518160010155505084600001805490508560010160008681526020019081526020016000208190555060019150506153f1565b828560000160018303815481106153d657fe5b90600052602060002090600202016001018190555060009150505b9392505050565b60008060007fc5d2460186f7233c927e7db2dcc703c0e500b653ca82273b7bfad8045d85a47060001b9050833f915080821415801561543a57506000801b8214155b92505050919050565b60606154528484600085615672565b90509392505050565b600080836001016000848152602001908152602001600020541415905092915050565b600073ffffffffffffffffffffffffffffffffffffffff168273ffffffffffffffffffffffffffffffffffffffff161415615521576040517f08c379a00000000000000000000000000000000000000000000000000000000081526004018080602001828103825260208152602001807f4552433732313a206d696e7420746f20746865207a65726f206164647265737381525060200191505060405180910390fd5b61552a816142f4565b1561559d576040517f08c379a000000000000000000000000000000000000000000000000000000000815260040180806020018281038252601c8152602001807f4552433732313a20746f6b656e20616c7265616479206d696e7465640000000081525060200191505060405180910390fd5b6155a960008383614bd5565b6155fa81600160008573ffffffffffffffffffffffffffffffffffffffff1673ffffffffffffffffffffffffffffffffffffffff1681526020019081526020016000206149c690919063ffffffff16565b5061561181836002614cd09092919063ffffffff16565b50808273ffffffffffffffffffffffffffffffffffffffff16600073ffffffffffffffffffffffffffffffffffffffff167fddf252ad1be2c89b69c2b068fc378daa952ba7f163c4a11628f55a4df523b3ef60405160405180910390a45050565b606061567d856153f8565b6156ef576040517f08c379a000000000000000000000000000000000000000000000000000000000815260040180806020018281038252601d8152602001807f416464726573733a2063616c6c20746f206e6f6e2d636f6e747261637400000081525060200191505060405180910390fd5b600060608673ffffffffffffffffffffffffffffffffffffffff1685876040518082805190602001908083835b6020831061573f578051825260208201915060208101905060208303925061571c565b6001836020036101000a03801982511681845116808217855250505050505090500191505060006040518083038185875af1925050503d80600081146157a1576040519150601f19603f3d011682016040523d82523d6000602084013e6157a6565b606091505b509150915081156157bb578092505050615870565b6000815111156157ce5780518082602001fd5b836040517f08c379a00000000000000000000000000000000000000000000000000000000081526004018080602001828103825283818151815260200191508051906020019080838360005b8381101561583557808201518184015260208101905061581a565b50505050905090810190601f1680156158625780820380516001836020036101000a031916815260200191505b509250505060405180910390fd5b949350505050565b828054600181600116156101000203166002900490600052602060002090601f016020900481019282601f106158b957805160ff19168380011785556158e7565b828001600101855582156158e7579182015b828111156158e65782518255916020019190600101906158cb565b5b5090506158f491906158f8565b5090565b5b808211156159115760008160009055506001016158f9565b509056fe5468697320636f7079206861736e2774206265656e2070757420666f722072656e74696e6720627920746865206f776e6572456e756d657261626c655365743a20696e646578206f7574206f6620626f756e64735468697320746f6b656e206861736e2774206265656e2070757420666f722073616c652062792074686520746f6b656e206f776e65725468652063757272656e742072656e74696e6720706572696f64206973206e6f74206f766572207965744552433732313a207472616e7366657220746f206e6f6e20455243373231526563656976657220696d706c656d656e7465725468697320636f707920686173206265656e2072656e74656420627920736f6d656f6e6520616c7265616479546f6b656e204f776e65722063616e27742072656e74206f6e652773206f776e20746f6b656e596f7520617265206e6f742074686520636f6e7472616374206f776e657220746f2063616c6c20746869732066756e6374696f6e214552433732313a207472616e7366657220746f20746865207a65726f20616464726573735468697320626f6f6b2068617320616c7265616479206265656e207075626c69736865642143616e277420707574206120636f707920757020666f722072656e74696e67206966206974277320616c7265616479206f6e2073616c65214552433732313a206f70657261746f7220717565727920666f72206e6f6e6578697374656e7420746f6b656e596f7520617265206e6f7420617574686f72697a656420746f2076696577207468697320636f707921596f757220707269636520697320746f6f206c6f7720666f72207468697320746f6b656e496e73756666696369656e742066756e6473202120506c656173652070617920746865207072696365206173207365742062792074686520617574686f722e4552433732313a20617070726f76652063616c6c6572206973206e6f74206f776e6572206e6f7220617070726f76656420666f7220616c6c596f75722070726963652069736e27742073756666696369656e7420746f2072656e74207468697320636f70794552433732313a2062616c616e636520717565727920666f7220746865207a65726f20616464726573734552433732313a206f776e657220717565727920666f72206e6f6e6578697374656e7420746f6b656e5468652072656e74696e6720706572696f64206973206e6f74206f7665722079657420666f7220796f7520746f20636f6e73756d652074686520636f6e74656e74456e756d657261626c654d61703a20696e646578206f7574206f6620626f756e64734552433732313a20617070726f76656420717565727920666f72206e6f6e6578697374656e7420746f6b656e4552433732314d657461646174613a2055524920736574206f66206e6f6e6578697374656e7420746f6b656e4552433732313a207472616e73666572206f6620746f6b656e2074686174206973206e6f74206f776e4552433732314d657461646174613a2055524920717565727920666f72206e6f6e6578697374656e7420746f6b656e5468652072656e74696e6720706572696f64206973206e6f74206f7665722079657420746f2070757420697420666f722072656e74696e6720616761696e4552433732313a20617070726f76616c20746f2063757272656e74206f776e65724552433732313a207472616e736665722063616c6c6572206973206e6f74206f776e6572206e6f7220617070726f766564596f7572206375742063616e2774206265206d6f7265207468616e20383025206f662074686520746f74616c43616e277420707574206120746f6b656e20666f722073616c65207768696c6520697427732070757420666f722072656e74696e67a2646970667358221220999d016385ddb772237614e36be829f54b464a45e1edac033cb68ea42709809e64736f6c634300060c0033",
  "immutableReferences": {},
  "source": "// SPDX-License-Identifier: MIT\n\npragma solidity >=0.4.16 <0.9.0;\n\n// import \"https://github.com/OpenZeppelin/openzeppelin-contracts/blob/release-v3.1.0/contracts/utils/Counters.sol\";\n// import \"https://github.com/OpenZeppelin/openzeppelin-contracts/blob/release-v3.1.0/contracts/token/ERC721/ERC721.sol\";\n\nimport \"../../node_modules/@openzeppelin/contracts/utils/Counters.sol\";\nimport \"../../node_modules/@openzeppelin/contracts/token/ERC721/ERC721.sol\";\n\n\n//prana main contract.\n\n\ncontract prana is ERC721 {\n\n    using Counters for Counters.Counter;\n\n    //to automate tokenId generation\n    Counters.Counter private _tokenIdTracker;\n\n    //AccessControl and Ownable can be added instead of owner if time permits\n    constructor() ERC721(\"PranaBooks\", \"PBT\") public {\n        owner = msg.sender;\n        // edit rentedBlocks to appropriate time/number of blocks before final version\n        // for a two-week rental period, the rentedBlocks would be 100800 blocks.\n        // assuming the block time is 12 seconds on average.\n        // rentedBlocks = 100;\n    }\n\n    //address of the contract deployer\n    address owner;\n\n    //rented number of blocks, to count time\n    // uint256 rentedBlocks;\n\n    //address of the helper contract\n    address pranaHelperAddress;\n\n    EnumerableSet.UintSet upForResaleTokens;\n\n    EnumerableSet.UintSet upForRentingTokens;\n\n    //Modifier for onlyOwner functions\n    //this could be figured out with AccessControl if there's enough time\n    modifier onlyOwner {\n       require(msg.sender == owner, 'You are not the contract owner to call this function!');\n       _;\n    }\n\n    // A nonce to ensure unique id for each new token.\n    //deprecated in favor of _tokenIdTracker\n    // uint256 public nonce;  // might need more work\n\n    // struct to store book details. For each new title.\n    // bytes32(encryptedBookDataHash) - the actual content of the book\n    // bytes32(unencryptedBookDetailsCID) - cid to pull book cover and other details to show the world\n    // This is where the linkage of the contract with storage mechanisms happen\n    // address(publisherAddress) -  address of the content creator/publisher\n    // uint256(bookPrice) - price of the book that the creator asks for direct purchase\n    // uint256(transactionCut) - cut of further transactions on copies\n    // that the creator lay claim to. Stored as a percentage.\n    struct BookInfo{\n        string encryptedBookDataHash;\n        string unencryptedBookDetailsCID;\n        address payable publisherAddress;\n        uint256 bookPrice;\n        uint256 transactionCut;\n        uint256 bookSales;\n    }\n\n    // mapping for all books\n    // ISBN is the key, its corresponding details is the value\n    mapping(uint256 => BookInfo) internal booksInfo;\n\n    // struct for token details and transactions\n    // uint256(isbn) binds the token to the book it points to\n    // uint256(copyNumber) to count which copy of the book the token is\n    // so that people can brag about owning the 1st copy, 100th copy etc,\n    // add sell them at a premium\n    // uint256(resalePrice) is the price that tokenOwner asks to sell the token\n    // bool(isUpForResale) is to advertise that the token is for sale\n    // uint(rentingPrice) is the price for renting that the tokenOwner sets\n    // bool (isUpForRenting) is to advertise that the token is for renting\n    // address(rentee) so that the tokenOwner doesn't change and the token comes back after a while\n    struct TokenDetails{\n        uint256 isbn;\n        uint256 copyNumber;\n        // resale aspects\n        uint256 resalePrice;\n        bool isUpForResale;\n        //Renting aspects (gonna be hard to properly figure out renting)\n        uint256 rentingPrice;\n        bool isUpForRenting;\n        address rentee;\n        uint256 rentedAtBlock;\n        uint256 numberOfBlocksToRent;\n    }\n\n\n    // tokenId to TokenDetails mapping\n    mapping (uint256 => TokenDetails) internal tokenData;\n\n    // account balances, for everyone involved.\n    // mapping (address => uint256) internal accountBalance;\n\n\n    // Mapping from holder address to their (enumerable) set of rented tokens\n    mapping (address => EnumerableSet.UintSet) private _renteeRentedTokens;\n\n    //Event to emit when a new book is published with its ISBN and publisher address\n    event BookPublished(address indexed publisher, uint256 indexed isbn,\n    string bookCoverAndDetails, uint256 indexed price, uint256 transactionCut);\n\n    //Event to emit when a tokenOwner puts out a token for sale\n    event TokenForSale(uint256 indexed resalePrice, uint256 indexed isbn, uint256 indexed tokenId);\n\n    //Event to emit when the tokenOwner puts out a token for renting\n    event TokenForRenting(uint256 indexed rentingPrice, uint256 indexed isbn, uint256 indexed tokenId);\n\n    //Event to emit when a token is rented\n    event TokenRented(uint256 indexed isbn, uint256 indexed tokenId, address indexed rentee);\n\n    // function to pass in the adddresses of each of the contract\n    // so that they may refer to each other. Crude version\n    function setPranaHelperAddress(address _pranaHelperAddress) public onlyOwner{\n        pranaHelperAddress = _pranaHelperAddress;\n    }\n\n    // overriding _beforeTokenTransfer()\n    // this ensure good behavior whenever a token transfer happens with money involved.\n    // various actors get their cut before ownership is transfered\n    function _beforeTokenTransfer(address from, address to, uint256 tokenId) internal override {\n        if(from != address(0) && to != address(0)){\n            if(msg.value>0){\n                _updateAccountBalances(tokenId);\n            }\n        }\n        // Resale and Renting flags updated to false at each Token Transfer\n        tokenData[tokenId].isUpForResale = false;\n        tokenData[tokenId].isUpForRenting = false;\n\n        upForResaleTokens.remove(tokenId);\n     }\n\n    // an internal function to update the balances for each monetary transaction\n    // not sure if msg.value works well with internal functions\n    function _updateAccountBalances(uint256 tokenId) internal {\n\n        // transactinCut for the author/publisher gets debited\n        // accountBalance[booksInfo[tokenData[tokenId].isbn].publisherAddress] += booksInfo[tokenData[tokenId].isbn].transactionCut*(msg.value/100);\n        (booksInfo[tokenData[tokenId].isbn].publisherAddress).transfer(booksInfo[tokenData[tokenId].isbn].transactionCut*(msg.value/100));\n\n        //the remaining money goes to the token owner\n        // accountBalance[ownerOf(tokenId)] += msg.value - (booksInfo[tokenData[tokenId].isbn].transactionCut*(msg.value/100));\n        address payable tokenOwner = payable(ownerOf(tokenId));\n        (tokenOwner).transfer(msg.value - (booksInfo[tokenData[tokenId].isbn].transactionCut*(msg.value/100)));\n        //  a better way would be to use call.value()(), but using .transfer for now\n\n    }\n\n    //function to add book details into the chain i.e. publish the book\n    function publishBook(\n        string memory _encryptedBookDataHash, //TOCHECK: bytes32 vs bytes memory\n        uint256 _isbn,\n        uint256 _price,\n        string memory _unencryptedBookDetailsCID,\n        uint256 _transactionCut)\n        public {\n        require(booksInfo[_isbn].publisherAddress==address(0), \"This book has already been published!\");\n        require(_transactionCut > 0 && _transactionCut < 80, \"Your cut can't be more than 80% of the total\");\n        booksInfo[_isbn].encryptedBookDataHash = _encryptedBookDataHash;\n        booksInfo[_isbn].publisherAddress = msg.sender;\n        booksInfo[_isbn].bookPrice = _price;\n        booksInfo[_isbn].unencryptedBookDetailsCID = _unencryptedBookDetailsCID;\n        booksInfo[_isbn].transactionCut = _transactionCut;\n        booksInfo[_isbn].bookSales = 0;\n\n        //event that serves as an advertisement\n        //last argument might be needed to change back to price\n        emit BookPublished(msg.sender, _isbn, _unencryptedBookDetailsCID, _price, _transactionCut);\n\n    }\n\n    //function to purchase books directly from the publisher.\n    //New tokens will be minted here.\n    //Could be assigned to Minter_Role in AccessControl and redirected from the helper contract\n    function directPurchase(uint256 _isbn) public payable returns (bool) {\n        //to revert back if the buyer doesn't have the price set by the author.\n        require(booksInfo[_isbn].publisherAddress != address(0),\"ISBN does not exist !\");\n        require(msg.value >= booksInfo[_isbn].bookPrice,\"Insufficient funds ! Please pay the price as set by the author.\");\n        //a new tokenId is generated, and a new token is minted with that ID.\n        uint256 tokenId = _tokenIdTracker.current();\n        _safeMint(msg.sender, tokenId);\n        _tokenIdTracker.increment();\n        //once a token's succesfully minted, update the various details.\n        booksInfo[_isbn].bookSales++;\n\n        tokenData[tokenId].isbn = _isbn;\n        tokenData[tokenId].copyNumber = booksInfo[_isbn].bookSales;\n        tokenData[tokenId].rentee = address(0);\n        tokenData[tokenId].rentedAtBlock = 0;\n        tokenData[tokenId].numberOfBlocksToRent = 0;\n\n        // the money goes to the plubisher's accountBalance.\n        // accountBalance[booksInfo[_isbn].publisherAddress] += msg.value;\n        (booksInfo[_isbn].publisherAddress).transfer(msg.value);\n        return true;\n    }\n\n    // function to put a token for sale\n    // a user can update the resalePrice by just putting it up for sale again (may not be needed)\n    function putTokenForSale(uint256 salePrice, uint256 tokenId) public {\n        require(msg.sender == ownerOf(tokenId), \"You are not this token's owner\");\n        require(tokenData[tokenId].isUpForRenting == false,\n        \"Can't put a token for sale while it's put for renting\");\n        require(salePrice >= 0, \"Price can't be negative\");\n        require(tokenData[tokenId].rentedAtBlock + tokenData[tokenId].numberOfBlocksToRent < block.number,\n        \"The current renting period is not over yet\");\n        tokenData[tokenId].resalePrice = salePrice;\n        tokenData[tokenId].isUpForResale = true;\n\n        // The helper contract gets approved for token transfer when someone's ready to buy\n        approve(pranaHelperAddress, tokenId);\n        upForResaleTokens.add(tokenId);\n        // event that serves as advertisement for all\n        emit TokenForSale(salePrice, tokenData[tokenId].isbn, tokenId);\n    }\n\n    // To buy a token that's been put for sale.\n    // function will always be called by pranaHelper as the approved address for tokenId\n    function buyToken(uint256 tokenId, address _tokenRecipient) public payable {\n        require(tokenData[tokenId].isUpForResale == true,\n        \"This token hasn't been put for sale by the token owner\");\n\n        require(msg.value >= tokenData[tokenId].resalePrice,\n        \"Your price is too low for this token\");\n\n\n        safeTransferFrom(ownerOf(tokenId), _tokenRecipient, tokenId);\n\n\n\n    }\n\n    // function to put a copy for renting, ownership doesn't change.\n    function putForRent(uint256 _newPrice, uint256 tokenId, uint256 _numberofBlocksToRent) public{\n        require(msg.sender == ownerOf(tokenId), \"You are not this token's owner\");\n        require(tokenData[tokenId].isUpForResale == false,\n        \"Can't put a copy up for renting if it's already on sale!\");\n        if(tokenData[tokenId].rentee != address(0)){\n                require(block.number > tokenData[tokenId].rentedAtBlock + tokenData[tokenId].numberOfBlocksToRent,\n                \"The renting period is not over yet to put it for renting again\");\n            }\n        tokenData[tokenId].rentingPrice = _newPrice;\n        tokenData[tokenId].isUpForRenting = true;\n        tokenData[tokenId].rentee = address(0);//No one's rented it as of now\n        tokenData[tokenId].numberOfBlocksToRent = _numberofBlocksToRent;\n        upForRentingTokens.add(tokenId);\n        emit TokenForRenting(_newPrice, tokenData[tokenId].isbn, tokenId);\n    }\n\n    //function to actually rent a copy for content consumption\n    function rentToken(uint256 tokenId) public payable {\n        require(tokenData[tokenId].isUpForRenting == true,\n        \"This copy hasn't been put for renting by the owner\");\n        require(tokenData[tokenId].rentee == address(0),\n        \"This copy has been rented by someone already\");\n        require(msg.value >= tokenData[tokenId].rentingPrice,\n        \"Your price isn't sufficient to rent this copy\");\n        require(msg.sender != ownerOf(tokenId), \"Token Owner can't rent one's own token\");\n\n        tokenData[tokenId].rentee = msg.sender;\n        tokenData[tokenId].rentedAtBlock = block.number;\n        tokenData[tokenId].isUpForRenting = false;\n\n        _updateAccountBalances(tokenId);\n\n        upForRentingTokens.remove(tokenId);\n        \n        // The token gets added to the personal collection of the rentee here.\n        // TODO: figuring out where _renteeRentedTokens[msg.sender].remove(tokenId) goes.\n        _renteeRentedTokens[msg.sender].add(tokenId);\n\n        emit TokenRented(tokenData[tokenId].isbn, tokenId, msg.sender);\n\n    }\n\n    // To set tokenURI, by the token owner.\n    // _uniqueCIDfortoken is a CID of a JSON object with all the extradetails like a personal note\n    function setTokenURI(uint256 tokenId, string memory _uniqueCIDfortoken) public {\n        require(ownerOf(tokenId)==msg.sender, \"You are not the token owner\");\n        _setTokenURI(tokenId, _uniqueCIDfortoken);\n    }\n\n    //function to actually consume the content  you've bought/rented\n    function consumeContent(uint256 tokenId) public view returns(string memory){\n        require(ownerOf(tokenId) == msg.sender || tokenData[tokenId].rentee == msg.sender,\n        \"You are not authorized to view this copy!\");\n        if(ownerOf(tokenId) == msg.sender){\n            if(tokenData[tokenId].rentee != address(0)){\n                require(block.number > tokenData[tokenId].rentedAtBlock + tokenData[tokenId].numberOfBlocksToRent,\n                \"The renting period is not over yet for you to consume the content\");\n            }\n        }\n        else if(tokenData[tokenId].rentee == msg.sender){\n            require(block.number <= tokenData[tokenId].rentedAtBlock + tokenData[tokenId].numberOfBlocksToRent,\n            \"Your rental period has expired\");\n        }\n        return booksInfo[tokenData[tokenId].isbn].encryptedBookDataHash;\n    }\n\n    // function to get the balances stored in contract back into the respective owners' account\n    // this is to mainly to reduce the number of transactions and transaction cost associated with it.\n    // WARNING: Extensive testing required before this can be finalized!\n    // function withdrawBalance() public payable{\n    //     require(accountBalance[msg.sender] > 0, \"You don't have any balance to withdraw\");\n    //     (msg.sender).transfer(accountBalance[msg.sender]);\n    //     accountBalance[msg.sender] = 0;\n    // }\n\n    //function to view balance\n    // function viewBalance() public view returns(uint256){\n    //     return accountBalance[msg.sender];\n    // }\n\n    //function to get book details with the tokenId\n    //returns CID of coverpic+bookname\n    function viewTokenDetails(uint256 _tokenId) public view returns (uint256, string memory, uint256, uint256, bool) {\n        require(_exists(_tokenId), \"Token doesn't  exist\");\n        return (tokenData[_tokenId].isbn, booksInfo[tokenData[_tokenId].isbn].unencryptedBookDetailsCID,\n        tokenData[_tokenId].copyNumber, tokenData[_tokenId].resalePrice, tokenData[_tokenId].isUpForResale);\n    }\n    \n    //split up from viewTokenDetails, specifically for renting. To avoid Stack Too Deep Error\n    function viewRentingTokenDetails(uint256 _tokenId) public view returns(uint256, string memory, uint256, uint256, uint256, uint256, bool) {\n        require(_exists(_tokenId), \"Token doesn't  exist\");\n        return(tokenData[_tokenId].isbn, booksInfo[tokenData[_tokenId].isbn].unencryptedBookDetailsCID, tokenData[_tokenId].copyNumber,\n        tokenData[_tokenId].rentedAtBlock, tokenData[_tokenId].rentingPrice, tokenData[_tokenId].numberOfBlocksToRent, tokenData[_tokenId].isUpForRenting);\n    }\n\n    function numberofTokensForResale() public view returns(uint256){\n        return upForResaleTokens.length();\n    }\n\n    function tokenForResaleAtIndex(uint256 index) public view returns (uint256) {\n        return upForResaleTokens.at(index);\n    }\n\n    function numberofTokensForRenting() public view returns(uint256){\n        return upForRentingTokens.length();\n    }\n\n    function tokenForRentingAtIndex(uint256 index) public view returns (uint256) {\n        return upForRentingTokens.at(index);\n    }\n\n    // rented token balance\n    function numberOfRentedTokens(address _rentee) public view returns (uint256) {\n        require(_rentee != address(0), \"Zero Address, can't look up.\");\n\n        return _renteeRentedTokens[_rentee].length();\n    }\n\n    // rented token at a specific index\n    function tokenOfRenteeByIndex(address _rentee, uint256 index) public view returns (uint256) {\n        require(_rentee != address(0), \"Zero Address, can't look up.\");\n        return _renteeRentedTokens[_rentee].at(index);\n    }\n\n    function viewBookDetails(uint256 _isbn) public view returns(string memory, address, uint256, uint256, uint256) {\n        require(booksInfo[_isbn].publisherAddress!=address(0), \"This book is not on the platform\");\n        return (booksInfo[_isbn].unencryptedBookDetailsCID, booksInfo[_isbn].publisherAddress,\n        booksInfo[_isbn].bookPrice, booksInfo[_isbn].transactionCut, booksInfo[_isbn].bookSales);\n\n    }\n\n    function viewMyBookDetails(uint256 _isbn) public view returns(string memory, string memory, address, uint256, uint256, uint256) {\n        require(booksInfo[_isbn].publisherAddress!=address(0), \"This book is not on the platform\");\n        require(msg.sender == booksInfo[_isbn].publisherAddress, \"You are not this book's author\");\n        return (booksInfo[_isbn].encryptedBookDataHash, booksInfo[_isbn].unencryptedBookDetailsCID, booksInfo[_isbn].publisherAddress,\n        booksInfo[_isbn].bookPrice, booksInfo[_isbn].transactionCut, booksInfo[_isbn].bookSales);\n    }\n}\n",
  "sourcePath": "/Users/user/Documents/pranah/contract/contracts/prana.sol",
  "compiler": {
    "name": "solc",
    "version": "0.6.12+commit.27d51765.Emscripten.clang"
  },
  "schemaVersion": "3.3.2",
  "updatedAt": "2021-03-31T06:07:42.295Z",
  "devdoc": {
    "kind": "dev",
    "methods": {
      "approve(address,uint256)": {
        "details": "See {IERC721-approve}."
      },
      "balanceOf(address)": {
        "details": "See {IERC721-balanceOf}."
      },
      "baseURI()": {
        "details": "Returns the base URI set via {_setBaseURI}. This will be automatically added as a prefix in {tokenURI} to each token's URI, or to the token ID if no specific URI is set for that token ID."
      },
      "getApproved(uint256)": {
        "details": "See {IERC721-getApproved}."
      },
      "isApprovedForAll(address,address)": {
        "details": "See {IERC721-isApprovedForAll}."
      },
      "name()": {
        "details": "See {IERC721Metadata-name}."
      },
      "ownerOf(uint256)": {
        "details": "See {IERC721-ownerOf}."
      },
      "safeTransferFrom(address,address,uint256)": {
        "details": "See {IERC721-safeTransferFrom}."
      },
      "safeTransferFrom(address,address,uint256,bytes)": {
        "details": "See {IERC721-safeTransferFrom}."
      },
      "setApprovalForAll(address,bool)": {
        "details": "See {IERC721-setApprovalForAll}."
      },
      "supportsInterface(bytes4)": {
        "details": "See {IERC165-supportsInterface}. Time complexity O(1), guaranteed to always use less than 30 000 gas."
      },
      "symbol()": {
        "details": "See {IERC721Metadata-symbol}."
      },
      "tokenByIndex(uint256)": {
        "details": "See {IERC721Enumerable-tokenByIndex}."
      },
      "tokenOfOwnerByIndex(address,uint256)": {
        "details": "See {IERC721Enumerable-tokenOfOwnerByIndex}."
      },
      "tokenURI(uint256)": {
        "details": "See {IERC721Metadata-tokenURI}."
      },
      "totalSupply()": {
        "details": "See {IERC721Enumerable-totalSupply}."
      },
      "transferFrom(address,address,uint256)": {
        "details": "See {IERC721-transferFrom}."
      }
    },
    "version": 1
  },
  "userdoc": {
    "kind": "user",
    "methods": {},
    "version": 1
  }
}